:100000000C9434000C943E000C943E000C943E0082
:100010000C943E000C943E000C943E000C943E0068
:100020000C943E000C943E000C943E000C943E0058
:100030000C943E000C943E000C943E000C943E0048
:100040000C943E000C943E000C943E000C943E0038
:100050000C943E000C943E000C943E000C943E0028
:100060000C943E000C943E0011241FBECFEFD8E04C
:10007000DEBFCDBF0E9440000C945A000C940000DB
:1000800080E284B987EC8AB988E38BB941E029B171
:1000900089B199B135B123FB882780F9842795FB75
:1000A000992790F99427892B8295880F807E832B3E
:0800B00085B9EDCFF894FFCFF4
:00000001FF
